:042000005DEF16F08A
:08200800F76A180FF66E200EB6
:10201000F7220900F550120000401454444854318E
:1020200031004552524F52004F4B0000444854314A
:1020300031204572726F7200543A20002043000034
:10204000483A200020250000EA6A490EE96EEF5068
:102050000EE00F0E016E006A002EFED7012EFBD798
:102060008F0E006E002EFED70000EF2EF2D712006A
:10207000C69E9E9637C0C9FF020EC6BE05D0C7B425
:10208000FED7000EC5BC010E016E120034500510C3
:10209000356EC580C5B0FED7D8900434366E376E25
:1020A000E7DF35C037F0E4DFC584C5B4FED7030EE3
:1020B000006E002EFED700D0345004090510356E96
:1020C000C580C5B0FED7D8900434366E376ED0DFE9
:1020D00035C037F0CDDFC584C5B4FED7030E006E22
:1020E000002EFED700D03450FB0B0510356EC58096
:1020F000C5B0FED7D8900434366E376EB9DF35C020
:1021000037F0B6DFC584C5B4FED7030E006E002ECF
:10211000FED700D01200010E345E0CE3EA6A340EE2
:10212000E96EEF5007E0020E006E002EFED700D0E1
:10213000EF2EF9D712001750F00B186E1738006EFB
:10214000F00E00160050F00B196E18C034F09EDF30
:1021500019C034F09BDF500E346EDDDF1200010E2B
:10216000176EE9DF040E496E6FDF120014C004F031
:10217000300E346E8BDF040E496E66DF020E156E74
:10218000FA0E346EC8DF152EFBD7300E346E7EDFAC
:10219000040E496E59DF020E156EFA0E346EBBDF67
:1021A000152EFBD7300E346E71DF960E346EB3DF12
:1021B000280E346E6BDF500E496E46DF280E176E08
:1021C000BADF500E496E40DF080E176EB4DFC7DF6E
:1021D000060E176EB0DF0C0E176EADDF9AEF16F01D
:1021E0001550030801E209D0036A15500DDF016E96
:1021F00014248009166E176E9EDF12003150F00B0A
:102200000109326E3138006EF00E00160050F00BEE
:102210000109336E32C034F039DF33C034F036DFB9
:10222000500E346E78DF12000900F5520CE0F6CF44
:1022300014F0F7CF15F0F5CF31F0E0DF14C0F6FF62
:1022400015C0F7FFF1D712008E0E006E50C001F0DE
:102250004FC002F0036A015209E102C001F0026AB4
:10226000080E005E015202E1006A08D0D89001BE5B
:1022700004D0023601360006F9D7019E120019502B
:10228000D8B4A5D0256E1D50D8B4A1D0255E05E3E5
:102290007F0E2526D8B09BD006D0810E255ED8A013
:1022A00096D0D8B494D025C000F0016A026A036ABF
:1022B000246A1AC023F0238E1BC022F01CC021F018
:1022C000190E256E2050215E0DE2010E225E0AE2FB
:1022D000235E08E2245E06E2242A232A222A2050D2
:1022E000212628D01F50225E12E2010E235E0FE24B
:1022F000245E0DE2242A232A1F5022262050212664
:1023000019E3222A17E1232A15E1242A13D01E50AB
:102310008009235E0EE2010E245E0BE2242A1E5089
:10232000800923261F502226E9E3232AE7E1242AF5
:10233000E5D70380252E01D00BD0D8902136223648
:1023400023362436D8900336023601362636BAD7DD
:1023500026A006D0D890013202320332263202D0B3
:10236000000635E026BE1ED0D89021362236233610
:1023700024362050215E07E2010E225E04E2235E35
:1023800002E2245E1AE31F50225E05E2010E235E84
:1023900002E2245E12E31E508009235E03E2010E76
:1023A000245E0BE3032A09E1022A07E1012A05E181
:1023B000002A0DE00132023203321AC025F01E500D
:1023C000251A25AE02D0018E06D0019E04D0006AE7
:1023D000016A026A036ACDEF12F04B50D8B471D093
:1023E000006E4F50D8B46DD0002604E3810E002655
:1023F00068E204D07F0E005E64E363E04CC053F0FB
:102400005050531A4C8E508E4E505202F4CF55F00D
:102410004D505102F4CF03F0F3CF54F05202F35079
:102420005526F4505422000E03224E505102F35010
:102430005526F4505422000E026A032202224C5008
:102440005202F3505426F4500322000E02224C5044
:102450005102F3500326F4500222000E016A0122B9
:102460004E505002F3505426F4500322000E022224
:1024700001224D505002F3500326F4500222000E68
:1024800001224C505002F3500226F4500122002A3F
:1024900001BE05D054360336023601360006000E62
:1024A00054AE0AD0032A02220122015005E1025053
:1024B00003E1035001E1002A53BE018E53AE019E99
:1024C00004D0006A016A026A036A12008E0E006E6E
:1024D0001D50005E1EC002F01FC001F0028E0052AF
:1024E00009E0D890025202E1015204E002320132C6
:1024F000002EF7D71EAE05D0011E021E012AD8B449
:10250000022A1200076AF2BE072AF29CF29EF2BE6D
:10251000FDD78A949394140E496E96DD9384030E2E
:10252000006E002EFED700D0010E186E938481A499
:102530000CD01850182A000A07E1075202E0C00E1A
:10254000F212FF0E016E55D0F1D7010E186E938472
:1025500081B40CD01850182A000A07E1075202E093
:10256000C00EF212FF0E016E44D0F1D7075202E006
:10257000C00EF212506A18C04FF066DE03C01CF0A5
:1025800002C01BF001C01AF000C019F0206A1F6AD7
:10259000200E1E6E850E1D6E72D603C017F002C08F
:1025A00016F001C015F000C014F017C04EF016C0B0
:1025B0004DF015C04CF014C04BF0526A516A200E19
:1025C000506E840E4F6E09DF03C017F002C016F084
:1025D00001C015F000C014F017C020F016C01FF0A5
:1025E00015C01EF014C01DF071DF01C006F0000E12
:1025F000016EAFEF16F0800ED8B2561A5B6A5C6AB5
:1026000052C05AF056505A1A5150D8B4DCD0596EB4
:10261000006E5550D8B4E0D0595ED8B481D03DE3B7
:1026200056C05FF05F8E57C05EF058C05DF05C6AC8
:10263000D8905F325E325D325C32592EF8D75AAE96
:1026400003D05B80DDD05B9059905B88EA6A540EC2
:10265000E96EE9D05B985ABE0AD059A013D05F3218
:102660005E325D325C32002AD8B4C5D00BD05FBE7A
:102670000CD0D8905C365D365E365F360006D8B436
:10268000BAD0F5D75B8C6BD05B9C52C05AF052AE7F
:1026900002D05F8EA9D05F9EA7D055C059F055C01B
:1026A00000F05150595E52C05FF05F8E53C05EF033
:1026B00054C05DF05C6AD8905F325E325D325C324D
:1026C000592EF8D75AAE03D05B829AD05B925990BC
:1026D0005B8AEA6A580EE96EA6D05B9A5ABE0AD0A7
:1026E00059A013D05F325E325D325C32002AD8B41A
:1026F00082D00BD05FBE0CD0D8905C365D365E3693
:102700005F360006D8B477D0F5D75B8E28D05B9EB5
:1027100056C05AF056AE02D05F8E66D05F9E64D02F
:1027200056C05FF05F8E57C05EF058C05DF05AAE85
:1027300004D05F9E5B8464D05B945C6A5990EA6AC3
:10274000540EE96E70D05ABE1CD052C05AF059A037
:1027500006D05F325E325D325C32002A4CE05CAE05
:102760000BD05D2A09E15E2A07E15F2A05E15F32AD
:102770005E325D32002A3FE05BBC86D75BBEC7D7C6
:102780001CD0800E5F1A5FAE04D03AD056C05AF00B
:102790000AD052C05AF05F5206E15E5204E15D5227
:1027A00002E1006A21D05FBE08D0D8905C365D3669
:1027B0005E365F36002EF7D71ED05AAE02D05F8E3F
:1027C00013D05F9E11D055C000F056C05FF057C0C7
:1027D0005EF058C05DF008D051C000F052C05FF00C
:1027E00053C05EF054C05DF05FC001F05EC002F007
:1027F0005DC003F034D0006A016A026A036A2FD018
:102800005C6A5D1E5E1E5F1E5C1E5C2A05E15D2A21
:1028100003E15E2A01E15F2A5BB015D75BB256D7B0
:102820005BB48AD7B3D7EF505D2605E35E2A03E198
:102830005F2AD8B45980ED52EF505E2603E35F2A39
:10284000D8B45980ED52EF50EFBE01D0800A5F2618
:10285000D8B059805BB8FED65BBA3FD774D71200A8
:10286000186A196A1A6A1B6A1C6A1D6A1E6A1F6A3C
:10287000206A216A226A236A246A256A266A276AEC
:10288000286A296A2A6A2B6A2C6A2D6A2E6A2F6A9C
:10289000306A316A326A336A346A356A366A376A4C
:1028A000386A396A3A6A3B6A3C6A3D6A3E6A3F6AFC
:1028B000406A416A426A436A446A010E456E086A88
:1028C000F2BE082AF29CF29EF2BEFDD78A9493943F
:1028D000140E496E24EC10F09384030E006E002E4B
:1028E000FED700D0938481A406D04550452A000A23
:1028F00001E123D1F7D7010E456E938481B406D050
:102900004550452A000A01E118D1F7D7010E456E5E
:10291000938481A406D04550452A000A01E10DD1D7
:10292000F7D7010E456E938481B406D04550452AF1
:10293000000A01E102D1F7D7466A4650270825E38D
:10294000036A46501D0FE96E000E0320EA6E010E69
:10295000EF6E456E938481A40DD0036A46501D0F1F
:10296000E96E000E0320EA6EEF50EF2A000A01E143
:10297000E4D0F0D7938481B406D04550452A000AAC
:1029800001E1DBD0F7D7462AD8D7476A4750270856
:1029900030E3486A4850070829E348504724036A4F
:1029A0001D0FE96E000E0320EA6EEF50065C1CE27C
:1029B0004730006E003200321F0E00160050036ACE
:1029C000180FE96E000E0320EA6E070ED8804854F7
:1029D000016E010E006E015204E0D8900036012E07
:1029E000FCD70050EF10EF6E482AD4D7080E4726C8
:1029F000CDD7085202E0C00EF21217C003F016C085
:102A0000E9FF17C0EAFF506A19C04FF01DDC03C090
:102A10004EF002C04DF001C04CF000C04BF0CD0EA6
:102A2000526ECC0E516E4C0E506E7B0E4F6ED5DC3E
:102A300003C04EF002C04DF001C04CF000C04BF09E
:102A4000506A18C04FF000DCEACF50F0E9CF4FF0E9
:102A5000D89203C054F002C053F001C052F000C03D
:102A600051F04EC058F04DC057F04CC056F04BC01E
:102A700055F0C1DD50C0EAFF4FC0E9FF00C0EFFFD5
:102A800001C0ECFF02C0ECFF03C0ECFF15C003F077
:102A900014C0E9FF15C0EAFF506A1BC04FF024ECD8
:102AA00011F003C04EF002C04DF001C04CF000C068
:102AB0004BF0CD0E526ECC0E516E4C0E506E7B0E06
:102AC0004F6E8BDC03C04EF002C04DF001C04CF0E5
:102AD00000C04BF0506A1AC04FF024EC11F0EACF5E
:102AE00050F0E9CF4FF0D89203C054F002C053F039
:102AF00001C052F000C051F04EC058F04DC057F028
:102B00004CC056F04BC055F076DD50C0EAFF4FC0C8
:102B1000E9FF00C0EFFF01C0ECFF02C0ECFF03C003
:102B2000ECFF195018241A241B241C5C03E01CC061
:102B300001F009D0000E016E06D0085202E0C00E6E
:102B4000F212FF0E016E0001D5EF16F03350016A4C
:102B5000325C03E232C000F00CD0006A080E346E22
:102B6000323600363350005CD8B0006E0136342E59
:102B7000F7D712001E6A1F6A206A216A226A236A36
:102B8000246A256A266A276A286A296A2A6A2B6AB9
:102B90002C6A2D6A2E6A036A2E501E0FE96E000EF3
:102BA0000320EA6E1DC032F00A0E336ECFDF0050F4
:102BB000300FEF6E2E2A1DC032F00A0E336EC6DFC4
:102BC00001C01DF01D52E7E1010E2F6E2F502E5C4B
:102BD0000EE32F502E5C036A1E0FE96E000E0320D9
:102BE000EA6EEFCF31F0FEEC10F02F2AEFD7120093
:102BF000196A1A6A010E1B6E1C6A18501C5C06E2E8
:102C00001B500A0DF3CF1BF01C2AF7D717C020F07A
:102C100016C01FF015C01EF014C01DF057DC01C017
:102C200019F0506A19C04FF024EC11F0D88217C087
:102C300054F016C053F015C052F014C051F003C048
:102C400058F002C057F001C056F000C055F0D3DC78
:102C500003C020F002C01FF001C01EF000C01DF034
:102C6000506A1BC04FF024EC11F020C04EF01FC082
:102C70004DF01EC04CF01DC04BF003C052F002C01E
:102C800051F001C050F000C04FF0EDEC11F003C066
:102C900020F002C01FF001C01EF000C01DF016DCC5
:102CA00001C01AF019C01DF065DF2E0E316EFEEC6A
:102CB00010F01AC01DF05EDF1200F86AD09E700E90
:102CC000D36ED26A9B6A93829380CB90CB92CB9641
:102CD000770EC86E280EC66EC78EC79C270E046E70
:102CE000080E056E0C6A0B6A0A6A096A106A0F6A96
:102CF0000E6A0D6A116A136A126A0F015B6B5C6BD4
:102D00005D6B5E6B5F6B9A6A996A986A280E066EB5
:102D1000076A086A040E146EFA0E496E000124EC6C
:102D200010F0142E01D002D00F01F6D7270E146E2A
:102D3000B6EF10F0AFEC10F0030E146E156AF0EC65
:102D400010F01C0EF66E200EF76E14EC11F0030E50
:102D5000146E010E156EF0EC10F082EF12F00152BD
:102D600007E0220EF66E200EF76E14EC11F0FFD77E
:102D7000280EF66E200EF76E14EC11F0040E146E91
:102D8000FA0E496E24EC10F0142EFAD7080E146EC9
:102D9000FA0E496E24EC10F0142EFAD7156A090EBB
:102DA000146E176A0D0E166E5BD501C011F011522C
:102DB0000DE0AFEC10F0146A156AF0EC10F02C0E78
:102DC000F66E200EF76E14EC11F0E0D7AFEC10F0B9
:102DD000146A156AF0EC10F0380EF66E200EF76EDD
:102DE00014EC11F00CC017F00BC016F00AC015F06F
:102DF00009C014F0020E186EFBDE3C0EF66E200EBB
:102E0000F76E14EC11F0146A010E156EF0EC10F070
:102E1000400EF66E200EF76E14EC11F010C017F095
:102E20000FC016F00EC015F00DC014F0020E186E93
:102E3000DFDE440EF66E200EF76E14EC11F0A6D70E
:022E400003008D
:020000040030CA
:0E00000023C85E3C00D3A1000FC00FE00F40EC
:00000001FF
;PIC18F45K50
;CRC=BEF8  CREATED="27-ago.-24 21:30"
